:020000040800F2
:1000000000000220C50200080503000805030008DF
:1000100005030008050300080503000800000000B0
:1000200000000000000000000000000005030008C0
:100030000503000800000000050300080503000890
:100040000503000805030008050300080503000870
:100050000503000805030008050300080503000860
:100060000503000805030008050300080503000850
:100070000503000805030008050300080503000840
:100080000503000805030008050300080503000830
:100090000503000805030008050300080503000820
:1000A0000503000805030008050300080503000810
:1000B0000503000805030008050300080503000800
:1000C00005030008050300080503000805030008F0
:1000D00005030008050300080503000805030008E0
:1000E00005030008050300080503000805030008D0
:1000F00005030008050300080503000805030008C0
:1001000005030008050300080503000805030008AF
:10011000050300080503000805030008050300089F
:10012000050300080503000805030008050300088F
:10013000050300080503000805030008050300087F
:10014000050300080503000805030008050300086F
:10015000050300080503000805030008050300085F
:10016000050300080503000805030008050300084F
:10017000050300080503000805030008050300083F
:08018000050300080503000857
:1001880080B483B000AF00237B6000237B6002E073
:100198007B6801337B607B68044A9342F8DD00BFCB
:1001A80000BF0C37BD4680BC704700BF1FA10700C9
:1001B80080B400AF104B1B6B0F4A43F00803136366
:1001C8000E4B1B680D4A43F0AA4313600B4B5B6848
:1001D8000A4A23F480535360084B9B68074A43F04C
:1001E8007F439360064BDB68054A23F07F43D36067
:1001F80000BFBD4680BC704700380240000C02407A
:100208000000024080B582B000AF224B5B69214AF2
:1002180043F480535361FFF7B3FF1E4B5B691D4ADC
:1002280043F440535361FFF7ABFF1A4B5B69194A1C
:1002380043F4E0435361FFF7A3FF164B5B69154A8C
:1002480043F470435361FFF79BFF00237B6012E088
:10025800104B5B690F4A23F470435361FFF790FF1B
:100268000C4B5B690B4A43F470435361FFF788FFFB
:100278007B6801337B607B68022BE9DD054B5B699A
:10028800044A23F470435361FFF77AFF00BF08372D
:10029800BD4680BD000C024080B500AFFFF788FF67
:1002A800FFF7B0FFFCE700BF0803000800000020CC
:1002B800000000200000002000000020002103E0D2
:1002C800094B5B58435004310848094B42189A427D
:1002D800F6D3084A02E0002342F8043B064B9A4250
:1002E800F9D3FFF7D9FF7047080300080000002082
:1002F800000000200000002000000020FEE70000B1
:04000005080002C528
:00000001FF
